3004120260407OCBCSGSGXXX601365950001                         Matwerkz Technologie                                                                                                                            GIRO                07042026                                                                                                                                                                                                                                                                                                                                                                                                                                                                                                                                                                                                                                                                                                                                                                                               
OCBCSGSGXXX609029475001                      Leong Yew Wei                                                                                                                                  00000000001234500                                   SALA                                                                                                                                                                                                                                                                                                                                                                                                                                                                                                                                                                                                                                                                                                                                                                                    
DBSSSGSGXXX153981779                         Ang Zhi Wei                                                                                                                                    00000000001234500                                   SALA                                                                                                                                                                                                                                                                                                                                                                                                                                                                                                                                                                                                                                                                                                                                                                                    
OCBCSGSGXXX596222141001                      Toh Chong Teck                                                                                                                                 00000000001234500                                   SALA                                                                                                                                                                                                                                                                                                                                                                                                                                                                                                                                                                                                                                                                                                                                                                                    
UOVBSGSGXXX7703419589                        Lim Jun Tian Marcus                                                                                                                            00000000001234500                                   SALA                                                                                                                                                                                                                                                                                                                                                                                                                                                                                                                                                                                                                                                                                                                                                                                    
DBSSSGSGXXX102161696                         Chen Ningping                                                                                                                                  00000000001234500                                   SALA                                                                                                                                                                                                                                                                                                                                                                                                                                                                                                                                                                                                                                                                                                                                                                                    
   
                                                                                                 